{
  "_format": "hh-sol-artifact-1",
  "contractName": "Staking",
  "sourceName": "contracts/Staking.sol",
  "abi": [
    {
      "inputs": [],
      "stateMutability": "nonpayable",
      "type": "constructor"
    },
    {
      "inputs": [
        {
          "internalType": "address",
          "name": "",
          "type": "address"
        },
        {
          "internalType": "bytes32",
          "name": "",
          "type": "bytes32"
        }
      ],
      "name": "accountBalances",
      "outputs": [
        {
          "internalType": "uint256",
          "name": "",
          "type": "uint256"
        }
      ],
      "stateMutability": "view",
      "type": "function"
    },
    {
      "inputs": [
        {
          "internalType": "uint256",
          "name": "amount",
          "type": "uint256"
        },
        {
          "internalType": "bytes32",
          "name": "symbol",
          "type": "bytes32"
        }
      ],
      "name": "depositTokens",
      "outputs": [],
      "stateMutability": "nonpayable",
      "type": "function"
    },
    {
      "inputs": [
        {
          "internalType": "bytes32",
          "name": "symbol",
          "type": "bytes32"
        },
        {
          "internalType": "address",
          "name": "tokenAddress",
          "type": "address"
        }
      ],
      "name": "whitelistToken",
      "outputs": [],
      "stateMutability": "nonpayable",
      "type": "function"
    },
    {
      "inputs": [
        {
          "internalType": "bytes32",
          "name": "",
          "type": "bytes32"
        }
      ],
      "name": "whitelistedTokens",
      "outputs": [
        {
          "internalType": "address",
          "name": "",
          "type": "address"
        }
      ],
      "stateMutability": "view",
      "type": "function"
    },
    {
      "inputs": [
        {
          "internalType": "uint256",
          "name": "amount",
          "type": "uint256"
        },
        {
          "internalType": "bytes32",
          "name": "symbol",
          "type": "bytes32"
        }
      ],
      "name": "withdrawTokens",
      "outputs": [],
      "stateMutability": "nonpayable",
      "type": "function"
    }
  ],
  "bytecode": "0x608060405234801561001057600080fd5b50336000806101000a81548173ffffffffffffffffffffffffffffffffffffffff021916908373ffffffffffffffffffffffffffffffffffffffff1602179055506109a6806100606000396000f3fe608060405234801561001057600080fd5b50600436106100575760003560e01c8063069fdaae1461005c5780638f97994b14610078578063aa3d9a1514610094578063d15b223e146100c4578063e64fe366146100e0575b600080fd5b610076600480360381019061007191906105b4565b610110565b005b610092600480360381019061008d919061062a565b6101f4565b005b6100ae60048036038101906100a9919061066a565b6103a4565b6040516100bb91906106a6565b60405180910390f35b6100de60048036038101906100d9919061062a565b6103d7565b005b6100fa60048036038101906100f591906106c1565b6104f6565b6040516101079190610710565b60405180910390f35b60008054906101000a900473ffffffffffffffffffffffffffffffffffffffff1673ffffffffffffffffffffffffffffffffffffffff163373ffffffffffffffffffffffffffffffffffffffff161461019e576040517f08c379a000000000000000000000000000000000000000000000000000000000815260040161019590610788565b60405180910390fd5b806001600084815260200190815260200160002060006101000a81548173ffffffffffffffffffffffffffffffffffffffff021916908373ffffffffffffffffffffffffffffffffffffffff1602179055505050565b81600260003373ffffffffffffffffffffffffffffffffffffffff1673ffffffffffffffffffffffffffffffffffffffff1681526020019081526020016000206000838152602001908152602001600020541015610287576040517f08c379a000000000000000000000000000000000000000000000000000000000815260040161027e906107f4565b60405180910390fd5b81600260003373ffffffffffffffffffffffffffffffffffffffff1673ffffffffffffffffffffffffffffffffffffffff168152602001908152602001600020600083815260200190815260200160002060008282546102e79190610843565b925050819055506001600082815260200190815260200160002060009054906101000a900473ffffffffffffffffffffffffffffffffffffffff1673ffffffffffffffffffffffffffffffffffffffff1663a9059cbb33846040518363ffffffff1660e01b815260040161035c929190610877565b6020604051808303816000875af115801561037b573d6000803e3d6000fd5b505050506040513d601f19601f8201168201806040525081019061039f91906108d8565b505050565b60016020528060005260406000206000915054906101000a900473ffffffffffffffffffffffffffffffffffffffff1681565b81600260003373ffffffffffffffffffffffffffffffffffffffff1673ffffffffffffffffffffffffffffffffffffffff168152602001908152602001600020600083815260200190815260200160002060008282546104379190610905565b925050819055506001600082815260200190815260200160002060009054906101000a900473ffffffffffffffffffffffffffffffffffffffff1673ffffffffffffffffffffffffffffffffffffffff166323b872dd3330856040518463ffffffff1660e01b81526004016104ae93929190610939565b6020604051808303816000875af11580156104cd573d6000803e3d6000fd5b505050506040513d601f19601f820116820180604052508101906104f191906108d8565b505050565b6002602052816000526040600020602052806000526040600020600091509150505481565b600080fd5b6000819050919050565b61053381610520565b811461053e57600080fd5b50565b6000813590506105508161052a565b92915050565b600073ffffffffffffffffffffffffffffffffffffffff82169050919050565b600061058182610556565b9050919050565b61059181610576565b811461059c57600080fd5b50565b6000813590506105ae81610588565b92915050565b600080604083850312156105cb576105ca61051b565b5b60006105d985828601610541565b92505060206105ea8582860161059f565b9150509250929050565b6000819050919050565b610607816105f4565b811461061257600080fd5b50565b600081359050610624816105fe565b92915050565b600080604083850312156106415761064061051b565b5b600061064f85828601610615565b925050602061066085828601610541565b9150509250929050565b6000602082840312156106805761067f61051b565b5b600061068e84828501610541565b91505092915050565b6106a081610576565b82525050565b60006020820190506106bb6000830184610697565b92915050565b600080604083850312156106d8576106d761051b565b5b60006106e68582860161059f565b92505060206106f785828601610541565b9150509250929050565b61070a816105f4565b82525050565b60006020820190506107256000830184610701565b92915050565b600082825260208201905092915050565b7f546869732066756e6374696f6e206973206e6f74207075626c69630000000000600082015250565b6000610772601b8361072b565b915061077d8261073c565b602082019050919050565b600060208201905081810360008301526107a181610765565b9050919050565b7f496e73756666696369656e742066756e64730000000000000000000000000000600082015250565b60006107de60128361072b565b91506107e9826107a8565b602082019050919050565b6000602082019050818103600083015261080d816107d1565b9050919050565b7f4e487b7100000000000000000000000000000000000000000000000000000000600052601160045260246000fd5b600061084e826105f4565b9150610859836105f4565b925082820390508181111561087157610870610814565b5b92915050565b600060408201905061088c6000830185610697565b6108996020830184610701565b9392505050565b60008115159050919050565b6108b5816108a0565b81146108c057600080fd5b50565b6000815190506108d2816108ac565b92915050565b6000602082840312156108ee576108ed61051b565b5b60006108fc848285016108c3565b91505092915050565b6000610910826105f4565b915061091b836105f4565b925082820190508082111561093357610932610814565b5b92915050565b600060608201905061094e6000830186610697565b61095b6020830185610697565b6109686040830184610701565b94935050505056fea2646970667358221220143562a073066179ea0039d54a3d4d976e825fdf3998b45e2ff46be22284576264736f6c63430008120033",
  "linkReferences": {},
  "deployedLinkReferences": {}
}